{
  "contractName": "Escrow",
  "abi": [
    {
      "constant": true,
      "inputs": [],
      "name": "startDate",
      "outputs": [
        {
          "name": "",
          "type": "uint256"
        }
      ],
      "payable": false,
      "stateMutability": "view",
      "type": "function"
    },
    {
      "constant": true,
      "inputs": [],
      "name": "duration",
      "outputs": [
        {
          "name": "",
          "type": "uint256"
        }
      ],
      "payable": false,
      "stateMutability": "view",
      "type": "function"
    },
    {
      "constant": true,
      "inputs": [],
      "name": "niftyAddress",
      "outputs": [
        {
          "name": "",
          "type": "address"
        }
      ],
      "payable": false,
      "stateMutability": "view",
      "type": "function"
    },
    {
      "constant": true,
      "inputs": [],
      "name": "buyer",
      "outputs": [
        {
          "name": "",
          "type": "address"
        }
      ],
      "payable": false,
      "stateMutability": "view",
      "type": "function"
    },
    {
      "constant": true,
      "inputs": [],
      "name": "price",
      "outputs": [
        {
          "name": "",
          "type": "uint256"
        }
      ],
      "payable": false,
      "stateMutability": "view",
      "type": "function"
    },
    {
      "constant": true,
      "inputs": [],
      "name": "niftyId",
      "outputs": [
        {
          "name": "",
          "type": "uint256"
        }
      ],
      "payable": false,
      "stateMutability": "view",
      "type": "function"
    },
    {
      "inputs": [
        {
          "name": "_niftyAddress",
          "type": "address"
        },
        {
          "name": "_niftyId",
          "type": "uint256"
        },
        {
          "name": "_buyer",
          "type": "address"
        },
        {
          "name": "_price",
          "type": "uint256"
        },
        {
          "name": "_duration",
          "type": "uint256"
        }
      ],
      "payable": false,
      "stateMutability": "nonpayable",
      "type": "constructor"
    },
    {
      "payable": true,
      "stateMutability": "payable",
      "type": "fallback"
    },
    {
      "constant": false,
      "inputs": [],
      "name": "paid",
      "outputs": [],
      "payable": false,
      "stateMutability": "nonpayable",
      "type": "function"
    },
    {
      "constant": false,
      "inputs": [],
      "name": "kill",
      "outputs": [],
      "payable": false,
      "stateMutability": "nonpayable",
      "type": "function"
    },
    {
      "constant": false,
      "inputs": [],
      "name": "safeSwitch",
      "outputs": [],
      "payable": false,
      "stateMutability": "nonpayable",
      "type": "function"
    },
    {
      "constant": false,
      "inputs": [
        {
          "name": "",
          "type": "address"
        },
        {
          "name": "",
          "type": "address"
        },
        {
          "name": "",
          "type": "uint256"
        },
        {
          "name": "",
          "type": "bytes"
        }
      ],
      "name": "onERC721Received",
      "outputs": [
        {
          "name": "",
          "type": "bytes4"
        }
      ],
      "payable": false,
      "stateMutability": "nonpayable",
      "type": "function"
    }
  ],
  "bytecode": "0x608060405234801561001057600080fd5b5060405160a080610afb833981018060405260a081101561003057600080fd5b81019080805190602001909291908051906020019092919080519060200190929190805190602001909291908051906020019092919050505033600360006101000a81548173ffffffffffffffffffffffffffffffffffffffff021916908373ffffffffffffffffffffffffffffffffffffffff160217905550846000806101000a81548173ffffffffffffffffffffffffffffffffffffffff021916908373ffffffffffffffffffffffffffffffffffffffff1602179055508360018190555082600260006101000a81548173ffffffffffffffffffffffffffffffffffffffff021916908373ffffffffffffffffffffffffffffffffffffffff16021790555081600481905550806005819055504260068190555050505050506109a08061015b6000396000f3fe6080604052600436106100a4576000357c0100000000000000000000000000000000000000000000000000000000900463ffffffff1680630b97bc86146100a65780630fb5a6b4146100d157806314333c43146100fc578063150b7a0214610153578063295b4e17146102b757806341c0e1b5146102ce5780637150d8ae146102e5578063a035b1fe1461033c578063ca1518f814610367578063e5a85f8f1461037e575b005b3480156100b257600080fd5b506100bb6103a9565b6040518082815260200191505060405180910390f35b3480156100dd57600080fd5b506100e66103af565b6040518082815260200191505060405180910390f35b34801561010857600080fd5b506101116103b5565b604051808273ffffffffffffffffffffffffffffffffffffffff1673ffffffffffffffffffffffffffffffffffffffff16815260200191505060405180910390f35b34801561015f57600080fd5b506102636004803603608081101561017657600080fd5b81019080803573ffffffffffffffffffffffffffffffffffffffff169060200190929190803573ffffffffffffffffffffffffffffffffffffffff16906020019092919080359060200190929190803590602001906401000000008111156101dd57600080fd5b8201836020820111156101ef57600080fd5b8035906020019184600183028401116401000000008311171561021157600080fd5b91908080601f016020809104026020016040519081016040528093929190818152602001838380828437600081840152601f19601f8201169050808301925050505050505091929192905050506103da565b60405180827bffffffffffffffffffffffffffffffffffffffffffffffffffffffff19167bffffffffffffffffffffffffffffffffffffffffffffffffffffffff1916815260200191505060405180910390f35b3480156102c357600080fd5b506102cc61040a565b005b3480156102da57600080fd5b506102e36105ee565b005b3480156102f157600080fd5b506102fa61072a565b604051808273ffffffffffffffffffffffffffffffffffffffff1673ffffffffffffffffffffffffffffffffffffffff16815260200191505060405180910390f35b34801561034857600080fd5b50610351610750565b6040518082815260200191505060405180910390f35b34801561037357600080fd5b5061037c610756565b005b34801561038a57600080fd5b5061039361096e565b6040518082815260200191505060405180910390f35b60065481565b60055481565b6000809054906101000a900473ffffffffffffffffffffffffffffffffffffffff1681565b600063150b7a027c0100000000000000000000000000000000000000000000000000000000029050949350505050565b6004543073ffffffffffffffffffffffffffffffffffffffff16311015151561043257600080fd5b60008060009054906101000a900473ffffffffffffffffffffffffffffffffffffffff1690508073ffffffffffffffffffffffffffffffffffffffff166342842e0e30600260009054906101000a900473ffffffffffffffffffffffffffffffffffffffff166001546040518463ffffffff167c0100000000000000000000000000000000000000000000000000000000028152600401808473ffffffffffffffffffffffffffffffffffffffff1673ffffffffffffffffffffffffffffffffffffffff1681526020018373ffffffffffffffffffffffffffffffffffffffff1673ffffffffffffffffffffffffffffffffffffffff1681526020018281526020019350505050600060405180830381600087803b15801561055357600080fd5b505af1158015610567573d6000803e3d6000fd5b50505050600360009054906101000a900473ffffffffffffffffffffffffffffffffffffffff1673ffffffffffffffffffffffffffffffffffffffff166108fc3073ffffffffffffffffffffffffffffffffffffffff16319081150290604051600060405180830381858888f193505050501580156105ea573d6000803e3d6000fd5b5050565b60008060009054906101000a900473ffffffffffffffffffffffffffffffffffffffff1690508073ffffffffffffffffffffffffffffffffffffffff166342842e0e30600360009054906101000a900473ffffffffffffffffffffffffffffffffffffffff166001546040518463ffffffff167c0100000000000000000000000000000000000000000000000000000000028152600401808473ffffffffffffffffffffffffffffffffffffffff1673ffffffffffffffffffffffffffffffffffffffff1681526020018373ffffffffffffffffffffffffffffffffffffffff1673ffffffffffffffffffffffffffffffffffffffff1681526020018281526020019350505050600060405180830381600087803b15801561070f57600080fd5b505af1158015610723573d6000803e3d6000fd5b5050505050565b600260009054906101000a900473ffffffffffffffffffffffffffffffffffffffff1681565b60045481565b600360009054906101000a900473ffffffffffffffffffffffffffffffffffffffff1673ffffffffffffffffffffffffffffffffffffffff163373ffffffffffffffffffffffffffffffffffffffff161415156107b257600080fd5b60008060009054906101000a900473ffffffffffffffffffffffffffffffffffffffff1690508073ffffffffffffffffffffffffffffffffffffffff166342842e0e30600360009054906101000a900473ffffffffffffffffffffffffffffffffffffffff166001546040518463ffffffff167c0100000000000000000000000000000000000000000000000000000000028152600401808473ffffffffffffffffffffffffffffffffffffffff1673ffffffffffffffffffffffffffffffffffffffff1681526020018373ffffffffffffffffffffffffffffffffffffffff1673ffffffffffffffffffffffffffffffffffffffff1681526020018281526020019350505050600060405180830381600087803b1580156108d357600080fd5b505af11580156108e7573d6000803e3d6000fd5b50505050600360009054906101000a900473ffffffffffffffffffffffffffffffffffffffff1673ffffffffffffffffffffffffffffffffffffffff166108fc3073ffffffffffffffffffffffffffffffffffffffff16319081150290604051600060405180830381858888f1935050505015801561096a573d6000803e3d6000fd5b5050565b6001548156fea165627a7a723058200ca595bbbcd4b3ac2ceda71448ce71e3fd31a5dd6344d7c2cf2f6168d26ab2450029",
  "source": "pragma solidity ^0.5.0;\n\nimport './Nifty.sol';\nimport 'openzeppelin-solidity/contracts/token/ERC721/IERC721Receiver.sol';\n\ncontract Escrow  is IERC721Receiver {\n\n  address public niftyAddress;\n  uint public niftyId;\n  address public buyer;\n  address payable admin;\n  uint public price;\n\n  uint public duration;\n  uint public startDate;\n\n  modifier onlyFlandes() {\n    require(msg.sender == admin);\n    _;\n  }\n\n  constructor(address _niftyAddress, uint _niftyId ,address _buyer, uint _price, uint _duration) public {\n    admin = msg.sender;\n    niftyAddress = _niftyAddress;\n    niftyId = _niftyId;\n    buyer = _buyer;\n    price = _price;\n    duration = _duration;\n    startDate = now;\n  }\n\n  function paid() public {\n    require(address(this).balance >= price);\n    Nifty nifty = Nifty(niftyAddress);\n    // require(nifty.safeTransferFrom(address(this),buyer,niftyId));\n    nifty.safeTransferFrom(address(this),buyer,niftyId);\n    // require(admin.transfer(address(this).balance));\n    admin.transfer(address(this).balance);\n  }\n\n  function kill() public {\n    // require(now - startDate >= 30 days);\n    Nifty nifty = Nifty(niftyAddress);\n    // require(nifty.transferFrom(address(this),admin,niftyId));\n    nifty.safeTransferFrom(address(this),admin,niftyId);\n  }\n\n  function safeSwitch() public onlyFlandes {\n    Nifty nifty = Nifty(niftyAddress);\n    // require(nifty.safeTransferFrom(address(this),admin,niftyId));\n    nifty.safeTransferFrom(address(this),admin,niftyId);\n    // require(admin.transfer(address(this).balance));\n    admin.transfer(address(this).balance);\n  }\n\n  function () payable external {}\n\n  function onERC721Received(address, address, uint256, bytes memory) public returns (bytes4) {\n      return this.onERC721Received.selector;\n  }\n}\n",
  "sourcePath": "/home/jbt/daployer/contracts/Escrow.sol",
  "compiler": {
    "name": "solc",
    "version": "0.5.0+commit.1d4f565a.Emscripten.clang"
  },
  "schemaVersion": "3.0.1",
  "updatedAt": "2019-01-19T13:26:23.352Z",
  "devdoc": {
    "methods": {}
  },
  "userdoc": {
    "methods": {}
  }
}