{
  "contractName": "Mappings",
  "abi": [
    {
      "anonymous": false,
      "inputs": [
        {
          "indexed": true,
          "name": "key",
          "type": "uint256"
        },
        {
          "indexed": false,
          "name": "digest",
          "type": "bytes32"
        },
        {
          "indexed": false,
          "name": "hashFunction",
          "type": "uint8"
        },
        {
          "indexed": false,
          "name": "size",
          "type": "uint8"
        }
      ],
      "name": "EntrySet",
      "type": "event"
    },
    {
      "constant": false,
      "inputs": [
        {
          "name": "_gradientId",
          "type": "uint256"
        },
        {
          "name": "_vin",
          "type": "string"
        },
        {
          "name": "_placa",
          "type": "string"
        },
        {
          "name": "_marca",
          "type": "string"
        },
        {
          "name": "_modelo",
          "type": "string"
        },
        {
          "name": "_ano",
          "type": "uint256"
        },
        {
          "name": "_fechaMatricula",
          "type": "uint256"
        }
      ],
      "name": "setMatricula",
      "outputs": [],
      "payable": false,
      "stateMutability": "nonpayable",
      "type": "function"
    },
    {
      "constant": false,
      "inputs": [
        {
          "name": "_gradientId",
          "type": "uint256"
        },
        {
          "name": "_digest",
          "type": "bytes32"
        },
        {
          "name": "_hashFunction",
          "type": "uint8"
        },
        {
          "name": "_size",
          "type": "uint8"
        }
      ],
      "name": "setEntry",
      "outputs": [],
      "payable": false,
      "stateMutability": "nonpayable",
      "type": "function"
    },
    {
      "constant": true,
      "inputs": [
        {
          "name": "_gradientId",
          "type": "uint256"
        },
        {
          "name": "_entryId",
          "type": "uint256"
        }
      ],
      "name": "getEntry",
      "outputs": [
        {
          "name": "digest",
          "type": "bytes32"
        },
        {
          "name": "hashfunction",
          "type": "uint8"
        },
        {
          "name": "size",
          "type": "uint8"
        }
      ],
      "payable": false,
      "stateMutability": "view",
      "type": "function"
    },
    {
      "constant": true,
      "inputs": [
        {
          "name": "_gradientId",
          "type": "uint256"
        }
      ],
      "name": "getMatricula",
      "outputs": [
        {
          "name": "owner",
          "type": "address"
        },
        {
          "name": "vin",
          "type": "string"
        },
        {
          "name": "placa",
          "type": "string"
        },
        {
          "name": "marca",
          "type": "string"
        },
        {
          "name": "modelo",
          "type": "string"
        },
        {
          "name": "ano",
          "type": "uint256"
        },
        {
          "name": "fechaMatricula",
          "type": "uint256"
        }
      ],
      "payable": false,
      "stateMutability": "view",
      "type": "function"
    }
  ],
  "bytecode": "0x608060405234801561001057600080fd5b50610d1c806100206000396000f3fe608060405260043610610062576000357c0100000000000000000000000000000000000000000000000000000000900463ffffffff1680634ba5fad21461006757806398ba676d14610312578063aa33c0aa14610385578063adc01ccb146105be575b600080fd5b34801561007357600080fd5b50610310600480360360e081101561008a57600080fd5b8101908080359060200190929190803590602001906401000000008111156100b157600080fd5b8201836020820111156100c357600080fd5b803590602001918460018302840111640100000000831117156100e557600080fd5b91908080601f016020809104026020016040519081016040528093929190818152602001838380828437600081840152601f19601f8201169050808301925050505050505091929192908035906020019064010000000081111561014857600080fd5b82018360208201111561015a57600080fd5b8035906020019184600183028401116401000000008311171561017c57600080fd5b91908080601f016020809104026020016040519081016040528093929190818152602001838380828437600081840152601f19601f820116905080830192505050505050509192919290803590602001906401000000008111156101df57600080fd5b8201836020820111156101f157600080fd5b8035906020019184600183028401116401000000008311171561021357600080fd5b91908080601f016020809104026020016040519081016040528093929190818152602001838380828437600081840152601f19601f8201169050808301925050505050505091929192908035906020019064010000000081111561027657600080fd5b82018360208201111561028857600080fd5b803590602001918460018302840111640100000000831117156102aa57600080fd5b91908080601f016020809104026020016040519081016040528093929190818152602001838380828437600081840152601f19601f820116905080830192505050505050509192919290803590602001909291908035906020019092919050505061061d565b005b34801561031e57600080fd5b506103556004803603604081101561033557600080fd5b810190808035906020019092919080359060200190929190505050610760565b604051808481526020018360ff1660ff1681526020018260ff1660ff168152602001935050505060405180910390f35b34801561039157600080fd5b506103be600480360360208110156103a857600080fd5b81019080803590602001909291905050506107cd565b604051808873ffffffffffffffffffffffffffffffffffffffff1673ffffffffffffffffffffffffffffffffffffffff1681526020018060200180602001806020018060200187815260200186815260200185810385528b818151815260200191508051906020019080838360005b8381101561044857808201518184015260208101905061042d565b50505050905090810190601f1680156104755780820380516001836020036101000a031916815260200191505b5085810384528a818151815260200191508051906020019080838360005b838110156104ae578082015181840152602081019050610493565b50505050905090810190601f1680156104db5780820380516001836020036101000a031916815260200191505b50858103835289818151815260200191508051906020019080838360005b838110156105145780820151818401526020810190506104f9565b50505050905090810190601f1680156105415780820380516001836020036101000a031916815260200191505b50858103825288818151815260200191508051906020019080838360005b8381101561057a57808201518184015260208101905061055f565b50505050905090810190601f1680156105a75780820380516001836020036101000a031916815260200191505b509b50505050505050505050505060405180910390f35b3480156105ca57600080fd5b5061061b600480360360808110156105e157600080fd5b810190808035906020019092919080359060200190929190803560ff169060200190929190803560ff169060200190929190505050610ab7565b005b610625610bcc565b60e0604051908101604052803373ffffffffffffffffffffffffffffffffffffffff168152602001888152602001878152602001868152602001858152602001848152602001838152509050806000808a815260200190815260200160002060008201518160000160006101000a81548173ffffffffffffffffffffffffffffffffffffffff021916908373ffffffffffffffffffffffffffffffffffffffff16021790555060208201518160010190805190602001906106e7929190610c20565b506040820151816002019080519060200190610704929190610c20565b506060820151816003019080519060200190610721929190610c20565b50608082015181600401908051906020019061073e929190610c20565b5060a0820151816005015560c082015181600601559050505050505050505050565b600080600080600160008781526020019081526020016000208581548110151561078657fe5b9060005260206000209060020201905080600001548160010160009054906101000a900460ff168260010160019054906101000a900460ff16935093509350509250925092565b600060608060608060008060008060008a815260200190815260200160002090508060000160009054906101000a900473ffffffffffffffffffffffffffffffffffffffff168160010182600201836003018460040185600501548660060154858054600181600116156101000203166002900480601f0160208091040260200160405190810160405280929190818152602001828054600181600116156101000203166002900480156108c25780601f10610897576101008083540402835291602001916108c2565b820191906000526020600020905b8154815290600101906020018083116108a557829003601f168201915b50505050509550848054600181600116156101000203166002900480601f01602080910402602001604051908101604052809291908181526020018280546001816001161561010002031660029004801561095e5780601f106109335761010080835404028352916020019161095e565b820191906000526020600020905b81548152906001019060200180831161094157829003601f168201915b50505050509450838054600181600116156101000203166002900480601f0160208091040260200160405190810160405280929190818152602001828054600181600116156101000203166002900480156109fa5780601f106109cf576101008083540402835291602001916109fa565b820191906000526020600020905b8154815290600101906020018083116109dd57829003601f168201915b50505050509350828054600181600116156101000203166002900480601f016020809104026020016040519081016040528092919081815260200182805460018160011615610100020316600290048015610a965780601f10610a6b57610100808354040283529160200191610a96565b820191906000526020600020905b815481529060010190602001808311610a7957829003601f168201915b50505050509250975097509750975097509750975050919395979092949650565b610abf610ca0565b6060604051908101604052808581526020018460ff1681526020018360ff1681525090506001600086815260200190815260200160002081908060018154018082558091505090600182039060005260206000209060020201600090919290919091506000820151816000015560208201518160010160006101000a81548160ff021916908360ff16021790555060408201518160010160016101000a81548160ff021916908360ff160217905550505050847fc1cab85c064df2adb16b3a984f9bbe2f4c9d9ef7d8f13a5c311834d0990795d3858585604051808481526020018360ff1660ff1681526020018260ff1660ff168152602001935050505060405180910390a25050505050565b60e060405190810160405280600073ffffffffffffffffffffffffffffffffffffffff1681526020016060815260200160608152602001606081526020016060815260200160008152602001600081525090565b828054600181600116156101000203166002900490600052602060002090601f016020900481019282601f10610c6157805160ff1916838001178555610c8f565b82800160010185558215610c8f579182015b82811115610c8e578251825591602001919060010190610c73565b5b509050610c9c9190610ccb565b5090565b60606040519081016040528060008019168152602001600060ff168152602001600060ff1681525090565b610ced91905b80821115610ce9576000816000905550600101610cd1565b5090565b9056fea165627a7a72305820333f14a6296f7f37f0d93565a6f433311d95bc146650f1b75b3dbc25a18065110029",
  "source": "pragma solidity ^0.5.0;\n\ncontract Mappings {\n\n  struct Matricula {\n    address owner;\n    string vin;\n    string placa;\n    string marca;\n    string modelo;\n    uint ano;\n    uint fechaMatricula;\n  }\n\n  struct Multihash {\n    bytes32 digest;\n    uint8 hashFunction;\n    uint8 size;\n  }\n  mapping(uint => Matricula) private matriculas;\n  mapping(uint => Multihash[]) private entries;\n\n  event EntrySet (\n    uint indexed key,\n    bytes32 digest,\n    uint8 hashFunction,\n    uint8 size\n  );\n\n  function setMatricula(uint _gradientId, string memory _vin, string memory _placa, string memory _marca, string memory _modelo, uint _ano, uint _fechaMatricula)\n  public\n  {\n    Matricula memory matri = Matricula(msg.sender, _vin,  _placa,  _marca,  _modelo,  _ano,  _fechaMatricula);\n    matriculas[_gradientId] = matri;\n  }\n\n  function setEntry(uint _gradientId, bytes32 _digest, uint8 _hashFunction, uint8 _size)\n  public\n  {\n    Multihash memory entry = Multihash(_digest, _hashFunction, _size);\n    entries[_gradientId].push(entry);\n    emit EntrySet(\n      _gradientId,\n      _digest,\n      _hashFunction,\n      _size\n    );\n  }\n\n  function getEntry(uint _gradientId, uint _entryId)\n  public\n  view\n  returns(bytes32 digest, uint8 hashfunction, uint8 size)\n  {\n    Multihash storage entry = entries[_gradientId][_entryId];\n    return (entry.digest, entry.hashFunction, entry.size);\n  }\n\n  function getMatricula(uint _gradientId)\n  public\n  view\n  returns(address owner, string memory vin, string memory placa, string memory marca, string memory modelo, uint ano, uint fechaMatricula)\n  {\n    Matricula storage matri = matriculas[_gradientId];\n    return (matri.owner, matri.vin, matri.placa, matri.marca, matri.modelo, matri.ano, matri.fechaMatricula);\n  }\n\n}\n\n\n\n\n/**\n * @dev associate a multihash entry with the sender address\n * @param _digest hash digest produced by hashing content using hash function\n * @param _hashFunction hashFunction code for the hash function used\n * @param _size length of the digest\n */\n\n\n/**\n * @dev retrieve multihash entry associated with an address\n * @param _gradientId uint used as key\n */\n",
  "sourcePath": "/home/jbt/daployer/contracts/Mappings.sol",
  "compiler": {
    "name": "solc",
    "version": "0.5.0+commit.1d4f565a.Emscripten.clang"
  },
  "schemaVersion": "3.0.1",
  "updatedAt": "2019-01-21T17:54:33.868Z",
  "devdoc": {
    "methods": {}
  },
  "userdoc": {
    "methods": {}
  }
}