{
  "contractName": "Product",
  "abi": [
    {
      "constant": true,
      "inputs": [],
      "name": "numberOfSuccess",
      "outputs": [
        {
          "name": "",
          "type": "uint256"
        }
      ],
      "payable": false,
      "stateMutability": "view",
      "type": "function"
    },
    {
      "constant": true,
      "inputs": [
        {
          "name": "",
          "type": "uint256"
        }
      ],
      "name": "pendingList",
      "outputs": [
        {
          "name": "",
          "type": "bool"
        }
      ],
      "payable": false,
      "stateMutability": "view",
      "type": "function"
    },
    {
      "constant": true,
      "inputs": [],
      "name": "name",
      "outputs": [
        {
          "name": "",
          "type": "string"
        }
      ],
      "payable": false,
      "stateMutability": "view",
      "type": "function"
    },
    {
      "constant": true,
      "inputs": [
        {
          "name": "",
          "type": "uint256"
        }
      ],
      "name": "disputesList",
      "outputs": [
        {
          "name": "",
          "type": "bool"
        }
      ],
      "payable": false,
      "stateMutability": "view",
      "type": "function"
    },
    {
      "constant": true,
      "inputs": [],
      "name": "numberOfRatings",
      "outputs": [
        {
          "name": "",
          "type": "uint256"
        }
      ],
      "payable": false,
      "stateMutability": "view",
      "type": "function"
    },
    {
      "constant": true,
      "inputs": [],
      "name": "quantity",
      "outputs": [
        {
          "name": "",
          "type": "uint256"
        }
      ],
      "payable": false,
      "stateMutability": "view",
      "type": "function"
    },
    {
      "constant": true,
      "inputs": [],
      "name": "approved",
      "outputs": [
        {
          "name": "",
          "type": "bool"
        }
      ],
      "payable": false,
      "stateMutability": "view",
      "type": "function"
    },
    {
      "constant": true,
      "inputs": [],
      "name": "numberOfSales",
      "outputs": [
        {
          "name": "",
          "type": "uint256"
        }
      ],
      "payable": false,
      "stateMutability": "view",
      "type": "function"
    },
    {
      "constant": true,
      "inputs": [],
      "name": "ratingSum",
      "outputs": [
        {
          "name": "",
          "type": "uint256"
        }
      ],
      "payable": false,
      "stateMutability": "view",
      "type": "function"
    },
    {
      "constant": true,
      "inputs": [],
      "name": "description",
      "outputs": [
        {
          "name": "",
          "type": "string"
        }
      ],
      "payable": false,
      "stateMutability": "view",
      "type": "function"
    },
    {
      "constant": true,
      "inputs": [],
      "name": "owner",
      "outputs": [
        {
          "name": "",
          "type": "address"
        }
      ],
      "payable": false,
      "stateMutability": "view",
      "type": "function"
    },
    {
      "constant": true,
      "inputs": [],
      "name": "store",
      "outputs": [
        {
          "name": "",
          "type": "address"
        }
      ],
      "payable": false,
      "stateMutability": "view",
      "type": "function"
    },
    {
      "constant": true,
      "inputs": [],
      "name": "numberOfDisputes",
      "outputs": [
        {
          "name": "",
          "type": "uint256"
        }
      ],
      "payable": false,
      "stateMutability": "view",
      "type": "function"
    },
    {
      "constant": true,
      "inputs": [],
      "name": "price",
      "outputs": [
        {
          "name": "",
          "type": "uint256"
        }
      ],
      "payable": false,
      "stateMutability": "view",
      "type": "function"
    },
    {
      "constant": true,
      "inputs": [
        {
          "name": "",
          "type": "uint256"
        }
      ],
      "name": "sales",
      "outputs": [
        {
          "name": "buyer",
          "type": "address"
        },
        {
          "name": "price",
          "type": "uint256"
        },
        {
          "name": "quantity",
          "type": "uint256"
        },
        {
          "name": "success",
          "type": "bool"
        },
        {
          "name": "dispute",
          "type": "bool"
        },
        {
          "name": "resolved",
          "type": "bool"
        },
        {
          "name": "rating",
          "type": "uint8"
        },
        {
          "name": "review",
          "type": "string"
        },
        {
          "name": "reason",
          "type": "string"
        }
      ],
      "payable": false,
      "stateMutability": "view",
      "type": "function"
    },
    {
      "constant": true,
      "inputs": [],
      "name": "numberOfResolvedDisputes",
      "outputs": [
        {
          "name": "",
          "type": "uint256"
        }
      ],
      "payable": false,
      "stateMutability": "view",
      "type": "function"
    },
    {
      "constant": true,
      "inputs": [],
      "name": "storeAddress",
      "outputs": [
        {
          "name": "",
          "type": "address"
        }
      ],
      "payable": false,
      "stateMutability": "view",
      "type": "function"
    },
    {
      "constant": true,
      "inputs": [],
      "name": "ratingAverage",
      "outputs": [
        {
          "name": "",
          "type": "uint256"
        }
      ],
      "payable": false,
      "stateMutability": "view",
      "type": "function"
    },
    {
      "inputs": [
        {
          "name": "_store",
          "type": "address"
        },
        {
          "name": "_name",
          "type": "string"
        },
        {
          "name": "_description",
          "type": "string"
        },
        {
          "name": "_price",
          "type": "uint256"
        },
        {
          "name": "_quantity",
          "type": "uint256"
        }
      ],
      "payable": false,
      "stateMutability": "nonpayable",
      "type": "constructor"
    },
    {
      "anonymous": false,
      "inputs": [
        {
          "indexed": false,
          "name": "saleBuyer",
          "type": "address"
        },
        {
          "indexed": false,
          "name": "saleKey",
          "type": "uint256"
        }
      ],
      "name": "Sold",
      "type": "event"
    },
    {
      "constant": false,
      "inputs": [
        {
          "name": "_price",
          "type": "uint256"
        },
        {
          "name": "_quantity",
          "type": "uint256"
        }
      ],
      "name": "buy",
      "outputs": [
        {
          "name": "",
          "type": "uint256"
        }
      ],
      "payable": true,
      "stateMutability": "payable",
      "type": "function"
    },
    {
      "constant": false,
      "inputs": [
        {
          "name": "_saleID",
          "type": "uint256"
        },
        {
          "name": "_rating",
          "type": "uint8"
        },
        {
          "name": "_review",
          "type": "string"
        }
      ],
      "name": "submitSuccess",
      "outputs": [
        {
          "name": "",
          "type": "bool"
        }
      ],
      "payable": false,
      "stateMutability": "nonpayable",
      "type": "function"
    },
    {
      "constant": false,
      "inputs": [
        {
          "name": "_saleID",
          "type": "uint256"
        },
        {
          "name": "_reason",
          "type": "string"
        }
      ],
      "name": "submitDispute",
      "outputs": [
        {
          "name": "",
          "type": "bool"
        }
      ],
      "payable": false,
      "stateMutability": "nonpayable",
      "type": "function"
    },
    {
      "constant": false,
      "inputs": [
        {
          "name": "_saleID",
          "type": "uint256"
        },
        {
          "name": "_rating",
          "type": "uint8"
        },
        {
          "name": "_review",
          "type": "string"
        }
      ],
      "name": "resolveDispute",
      "outputs": [
        {
          "name": "",
          "type": "bool"
        }
      ],
      "payable": false,
      "stateMutability": "nonpayable",
      "type": "function"
    },
    {
      "constant": false,
      "inputs": [
        {
          "name": "_quantity",
          "type": "uint256"
        }
      ],
      "name": "changeQuantity",
      "outputs": [
        {
          "name": "",
          "type": "uint256"
        }
      ],
      "payable": false,
      "stateMutability": "nonpayable",
      "type": "function"
    },
    {
      "constant": false,
      "inputs": [],
      "name": "approve",
      "outputs": [],
      "payable": false,
      "stateMutability": "nonpayable",
      "type": "function"
    }
  ],
  "bytecode": "0x60806040526000600660006101000a81548160ff021916908315150217905550600060085560006009556000600a556000600b556000600c556000600d556000600e553480156200004f57600080fd5b5060405162001dc038038062001dc0833981018060405281019080805190602001909291908051820192919060200180518201929190602001805190602001909291908051906020019092919050505084600260006101000a81548173ffffffffffffffffffffffffffffffffffffffff021916908373ffffffffffffffffffffffffffffffffffffffff16021790555084600160006101000a81548173ffffffffffffffffffffffffffffffffffffffff021916908373ffffffffffffffffffffffffffffffffffffffff160217905550336000806101000a81548173ffffffffffffffffffffffffffffffffffffffff021916908373ffffffffffffffffffffffffffffffffffffffff160217905550836003908051906020019062000179929190620001ac565b50826004908051906020019062000192929190620001ac565b50816005819055508060078190555050505050506200025b565b828054600181600116156101000203166002900490600052602060002090601f016020900481019282601f10620001ef57805160ff191683800117855562000220565b8280016001018555821562000220579182015b828111156200021f57825182559160200191906001019062000202565b5b5090506200022f919062000233565b5090565b6200025891905b80821115620002545760008160009055506001016200023a565b5090565b90565b611b55806200026b6000396000f30060806040526004361061013e576000357c0100000000000000000000000000000000000000000000000000000000900463ffffffff16806301f20c1c1461014357806303aca7921461016e578063059315fa146101b357806306fdde031461023e5780630e37b016146102ce57806312424e3f14610313578063132326a51461032a578063172d9773146103c257806317fc45e2146103ed57806319d40b081461041857806321745c15146104475780633f0795ff146104725780637284e4161461049d5780638da5cb5b1461052d5780639452651b14610584578063975057e7146105c55780639d142c261461061c578063a035b1fe14610647578063b5f522f714610672578063c26ecd46146107f3578063c316939c1461081e578063d6febde8146108b6578063f2c4da93146108f4578063fe1857821461094b575b600080fd5b34801561014f57600080fd5b50610158610976565b6040518082815260200191505060405180910390f35b34801561017a57600080fd5b506101996004803603810190808035906020019092919050505061097c565b604051808215151515815260200191505060405180910390f35b3480156101bf57600080fd5b5061022460048036038101908080359060200190929190803590602001908201803590602001908080601f016020809104026020016040519081016040528093929190818152602001838380828437820191505050505050919291929050505061099c565b604051808215151515815260200191505060405180910390f35b34801561024a57600080fd5b50610253610bea565b6040518080602001828103825283818151815260200191508051906020019080838360005b83811015610293578082015181840152602081019050610278565b50505050905090810190601f1680156102c05780820380516001836020036101000a031916815260200191505b509250505060405180910390f35b3480156102da57600080fd5b506102f960048036038101908080359060200190929190505050610c88565b604051808215151515815260200191505060405180910390f35b34801561031f57600080fd5b50610328610ca8565b005b34801561033657600080fd5b506103a860048036038101908080359060200190929190803560ff169060200190929190803590602001908201803590602001908080601f0160208091040260200160405190810160405280939291908181526020018383808284378201915050505050509192919290505050610d21565b604051808215151515815260200191505060405180910390f35b3480156103ce57600080fd5b506103d7610fd8565b6040518082815260200191505060405180910390f35b3480156103f957600080fd5b50610402610fde565b6040518082815260200191505060405180910390f35b34801561042457600080fd5b5061042d610fe4565b604051808215151515815260200191505060405180910390f35b34801561045357600080fd5b5061045c610ff7565b6040518082815260200191505060405180910390f35b34801561047e57600080fd5b50610487610ffd565b6040518082815260200191505060405180910390f35b3480156104a957600080fd5b506104b2611003565b6040518080602001828103825283818151815260200191508051906020019080838360005b838110156104f25780820151818401526020810190506104d7565b50505050905090810190601f16801561051f5780820380516001836020036101000a031916815260200191505b509250505060405180910390f35b34801561053957600080fd5b506105426110a1565b604051808273ffffffffffffffffffffffffffffffffffffffff1673ffffffffffffffffffffffffffffffffffffffff16815260200191505060405180910390f35b34801561059057600080fd5b506105af600480360381019080803590602001909291905050506110c6565b6040518082815260200191505060405180910390f35b3480156105d157600080fd5b506105da611134565b604051808273ffffffffffffffffffffffffffffffffffffffff1673ffffffffffffffffffffffffffffffffffffffff16815260200191505060405180910390f35b34801561062857600080fd5b5061063161115a565b6040518082815260200191505060405180910390f35b34801561065357600080fd5b5061065c611160565b6040518082815260200191505060405180910390f35b34801561067e57600080fd5b5061069d60048036038101908080359060200190929190505050611166565b604051808a73ffffffffffffffffffffffffffffffffffffffff1673ffffffffffffffffffffffffffffffffffffffff1681526020018981526020018881526020018715151515815260200186151515158152602001851515151581526020018460ff1660ff1681526020018060200180602001838103835285818151815260200191508051906020019080838360005b8381101561074957808201518184015260208101905061072e565b50505050905090810190601f1680156107765780820380516001836020036101000a031916815260200191505b50838103825284818151815260200191508051906020019080838360005b838110156107af578082015181840152602081019050610794565b50505050905090810190601f1680156107dc5780820380516001836020036101000a031916815260200191505b509b50505050505050505050505060405180910390f35b3480156107ff57600080fd5b50610808611338565b6040518082815260200191505060405180910390f35b34801561082a57600080fd5b5061089c60048036038101908080359060200190929190803560ff169060200190929190803590602001908201803590602001908080601f016020809104026020016040519081016040528093929190818152602001838380828437820191505050505050919291929050505061133e565b604051808215151515815260200191505060405180910390f35b6108de600480360381019080803590602001909291908035906020019092919050505061159b565b6040518082815260200191505060405180910390f35b34801561090057600080fd5b50610909611986565b604051808273ffffffffffffffffffffffffffffffffffffffff1673ffffffffffffffffffffffffffffffffffffffff16815260200191505060405180910390f35b34801561095757600080fd5b506109606119ac565b6040518082815260200191505060405180910390f35b60095481565b600f6020528060005260406000206000915054906101000a900460ff1681565b6000823373ffffffffffffffffffffffffffffffffffffffff166011600083815260200190815260200160002060000160009054906101000a900473ffffffffffffffffffffffffffffffffffffffff1673ffffffffffffffffffffffffffffffffffffffff16141515610a0f57600080fd5b8360011515600f600083815260200190815260200160002060009054906101000a900460ff161515141515610a4357600080fd5b60006011600087815260200190815260200160002060030160006101000a81548160ff02191690831515021790555060016011600087815260200190815260200160002060030160016101000a81548160ff02191690831515021790555083601160008781526020019081526020016000206005019080519060200190610acb929190611a04565b506000600f600087815260200190815260200160002060006101000a81548160ff02191690831515021790555060016010600087815260200190815260200160002060006101000a81548160ff021916908315150217905550610b3a6001600d546119b290919063ffffffff16565b600d81905550600260009054906101000a900473ffffffffffffffffffffffffffffffffffffffff1673ffffffffffffffffffffffffffffffffffffffff1663c604a57b6040518163ffffffff167c0100000000000000000000000000000000000000000000000000000000028152600401600060405180830381600087803b158015610bc657600080fd5b505af1158015610bda573d6000803e3d6000fd5b5050505060019250505092915050565b60038054600181600116156101000203166002900480601f016020809104026020016040519081016040528092919081815260200182805460018160011615610100020316600290048015610c805780601f10610c5557610100808354040283529160200191610c80565b820191906000526020600020905b815481529060010190602001808311610c6357829003601f168201915b505050505081565b60106020528060005260406000206000915054906101000a900460ff1681565b600160009054906101000a900473ffffffffffffffffffffffffffffffffffffffff1673ffffffffffffffffffffffffffffffffffffffff163373ffffffffffffffffffffffffffffffffffffffff16141515610d0457600080fd5b6001600660006101000a81548160ff021916908315150217905550565b6000833373ffffffffffffffffffffffffffffffffffffffff166011600083815260200190815260200160002060000160009054906101000a900473ffffffffffffffffffffffffffffffffffffffff1673ffffffffffffffffffffffffffffffffffffffff16141515610d9457600080fd5b8460011515600f600083815260200190815260200160002060009054906101000a900460ff161515141515610dc857600080fd5b60016011600088815260200190815260200160002060030160006101000a81548160ff02191690831515021790555060006011600088815260200190815260200160002060030160016101000a81548160ff02191690831515021790555083601160008881526020019081526020016000206004019080519060200190610e50929190611a04565b50846011600088815260200190815260200160002060030160036101000a81548160ff021916908360ff1602179055506000600f600088815260200190815260200160002060006101000a81548160ff021916908315150217905550610ec260016009546119b290919063ffffffff16565b600981905550610ede6001600a546119b290919063ffffffff16565b600a81905550610efc8560ff16600b546119b290919063ffffffff16565b600b81905550610f19600a54600b546119d090919063ffffffff16565b600c81905550600260009054906101000a900473ffffffffffffffffffffffffffffffffffffffff1673ffffffffffffffffffffffffffffffffffffffff16632d486bea866040518263ffffffff167c0100000000000000000000000000000000000000000000000000000000028152600401808260ff168152602001915050600060405180830381600087803b158015610fb357600080fd5b505af1158015610fc7573d6000803e3d6000fd5b505050506001925050509392505050565b600a5481565b60075481565b600660009054906101000a900460ff1681565b60085481565b600b5481565b60048054600181600116156101000203166002900480601f0160208091040260200160405190810160405280929190818152602001828054600181600116156101000203166002900480156110995780601f1061106e57610100808354040283529160200191611099565b820191906000526020600020905b81548152906001019060200180831161107c57829003601f168201915b505050505081565b6000809054906101000a900473ffffffffffffffffffffffffffffffffffffffff1681565b60008060009054906101000a900473ffffffffffffffffffffffffffffffffffffffff1673ffffffffffffffffffffffffffffffffffffffff163373ffffffffffffffffffffffffffffffffffffffff1614151561112357600080fd5b816007819055506007549050919050565b600260009054906101000a900473ffffffffffffffffffffffffffffffffffffffff1681565b600d5481565b60055481565b60116020528060005260406000206000915090508060000160009054906101000a900473ffffffffffffffffffffffffffffffffffffffff16908060010154908060020154908060030160009054906101000a900460ff16908060030160019054906101000a900460ff16908060030160029054906101000a900460ff16908060030160039054906101000a900460ff1690806004018054600181600116156101000203166002900480601f0160208091040260200160405190810160405280929190818152602001828054600181600116156101000203166002900480156112905780601f1061126557610100808354040283529160200191611290565b820191906000526020600020905b81548152906001019060200180831161127357829003601f168201915b505050505090806005018054600181600116156101000203166002900480601f01602080910402602001604051908101604052809291908181526020018280546001816001161561010002031660029004801561132e5780601f106113035761010080835404028352916020019161132e565b820191906000526020600020905b81548152906001019060200180831161131157829003601f168201915b5050505050905089565b600e5481565b6000833373ffffffffffffffffffffffffffffffffffffffff166011600083815260200190815260200160002060000160009054906101000a900473ffffffffffffffffffffffffffffffffffffffff1673ffffffffffffffffffffffffffffffffffffffff161415156113b157600080fd5b600115156011600087815260200190815260200160002060030160019054906101000a900460ff1615151415156113e757600080fd5b60016011600087815260200190815260200160002060030160026101000a81548160ff02191690831515021790555082601160008781526020019081526020016000206004019080519060200190611440929190611a04565b50836011600087815260200190815260200160002060030160036101000a81548160ff021916908360ff1602179055506114866001600e546119b290919063ffffffff16565b600e819055506114a26001600a546119b290919063ffffffff16565b600a819055506114c08460ff16600b546119b290919063ffffffff16565b600b819055506114dd600a54600b546119d090919063ffffffff16565b600c81905550600260009054906101000a900473ffffffffffffffffffffffffffffffffffffffff1673ffffffffffffffffffffffffffffffffffffffff16636ba227d6856040518263ffffffff167c0100000000000000000000000000000000000000000000000000000000028152600401808260ff168152602001915050600060405180830381600087803b15801561157757600080fd5b505af115801561158b573d6000803e3d6000fd5b5050505060019150509392505050565b600060011515600660009054906101000a900460ff1615151415156115bf57600080fd5b826005541415156115cf57600080fd5b81600754101515156115e057600080fd5b818302341415156115f057600080fd5b611605826007546119eb90919063ffffffff16565b60078190555061162160016008546119b290919063ffffffff16565b600881905550610120604051908101604052803373ffffffffffffffffffffffffffffffffffffffff168152602001848152602001838152602001600015158152602001600015158152602001600015158152602001600060ff16815260200160206040519081016040528060008152508152602001602060405190810160405280600081525081525060116000600854815260200190815260200160002060008201518160000160006101000a81548173ffffffffffffffffffffffffffffffffffffffff021916908373ffffffffffffffffffffffffffffffffffffffff160217905550602082015181600101556040820151816002015560608201518160030160006101000a81548160ff02191690831515021790555060808201518160030160016101000a81548160ff02191690831515021790555060a08201518160030160026101000a81548160ff02191690831515021790555060c08201518160030160036101000a81548160ff021916908360ff16021790555060e08201518160040190805190602001906117b8929190611a84565b506101008201518160050190805190602001906117d6929190611a84565b509050506001600f6000600854815260200190815260200160002060006101000a81548160ff0219169083151502179055506000809054906101000a900473ffffffffffffffffffffffffffffffffffffffff1673ffffffffffffffffffffffffffffffffffffffff166108fc349081150290604051600060405180830381858888f1935050505015801561186f573d6000803e3d6000fd5b50600260009054906101000a900473ffffffffffffffffffffffffffffffffffffffff1673ffffffffffffffffffffffffffffffffffffffff166347f4bd746040518163ffffffff167c0100000000000000000000000000000000000000000000000000000000028152600401600060405180830381600087803b1580156118f657600080fd5b505af115801561190a573d6000803e3d6000fd5b505050507fae92ab4b6f8f401ead768d3273e6bb937a13e39827d19c6376e8fd4512a05d9a33600854604051808373ffffffffffffffffffffffffffffffffffffffff1673ffffffffffffffffffffffffffffffffffffffff1681526020018281526020019250505060405180910390a1600854905092915050565b600160009054906101000a900473ffffffffffffffffffffffffffffffffffffffff1681565b600c5481565b60008082840190508381101515156119c657fe5b8091505092915050565b60008082848115156119de57fe5b0490508091505092915050565b60008282111515156119f957fe5b818303905092915050565b828054600181600116156101000203166002900490600052602060002090601f016020900481019282601f10611a4557805160ff1916838001178555611a73565b82800160010185558215611a73579182015b82811115611a72578251825591602001919060010190611a57565b5b509050611a809190611b04565b5090565b828054600181600116156101000203166002900490600052602060002090601f016020900481019282601f10611ac557805160ff1916838001178555611af3565b82800160010185558215611af3579182015b82811115611af2578251825591602001919060010190611ad7565b5b509050611b009190611b04565b5090565b611b2691905b80821115611b22576000816000905550600101611b0a565b5090565b905600a165627a7a723058209766d2b4e85062dc4c1d8a0d2ec34899a397dcce48a48ebedcddd08b236a030b0029",
  "source": "pragma solidity ^0.4.20;\nimport \"./Store.sol\";\n\nlibrary SafeMath {\n  function mul(uint256 a, uint256 b) internal pure returns (uint256) {\n    uint256 c = a * b;\n    assert(a == 0 || c / a == b);\n    return c;\n  }\n\n  function div(uint256 a, uint256 b) internal  pure returns (uint256) {\n    uint256 c = a / b;\n    return c;\n  }\n\n  function sub(uint256 a, uint256 b) internal  pure returns (uint256) {\n    assert(b <= a);\n    return a - b;\n  }\n\n  function add(uint256 a, uint256 b) internal pure  returns (uint256) {\n    uint256 c = a + b;\n    assert(c >= a);\n    return c;\n  }\n}\n\ncontract Product {\n    using SafeMath for uint;\n\n    address public owner;\n    address public storeAddress;\n    Store public store;\n\n    string public name;\n    string public description;\n    uint public price;\n\n    bool public approved = false;\n\n    uint public quantity;\n    uint public numberOfSales = 0;\n    uint public numberOfSuccess = 0;\n    uint public numberOfRatings = 0;\n    uint public ratingSum = 0;\n    uint public ratingAverage = 0;\n    uint public numberOfDisputes = 0;\n    uint public numberOfResolvedDisputes = 0;\n\n    mapping(uint => bool) public pendingList;\n    mapping(uint => bool) public disputesList;\n\n    struct Sale {\n        address buyer;\n        uint price;\n        uint quantity;\n        bool success;\n        bool dispute;\n        bool resolved;\n        uint8 rating;\n        string review;\n        string reason;\n    }\n    mapping(uint => Sale) public sales;\n\n    modifier onlyOwner(uint _saleID) {\n        require(sales[_saleID].buyer == msg.sender);\n        _;\n    }\n    modifier onlyPending(uint _saleID) {\n        require(pendingList[_saleID] == true);\n        _;\n    }\n    modifier approvedByStore() {\n        require(approved == true);\n        _;\n    }\n\n    event Sold(\n        address saleBuyer,\n        uint saleKey\n    );\n\n    constructor(address _store, string _name, string _description, uint _price,\n        uint _quantity) public {\n        store = Store(_store);\n        storeAddress = _store;\n        // require(Store.owner() == msg.sender);\n        owner = msg.sender;\n        name = _name;\n        description = _description;\n        price = _price;\n        quantity = _quantity;\n    }\n\n    function buy(uint _price, uint _quantity) public approvedByStore payable returns(uint)  {\n        // Price must equal price and _quantity > quantity\n        require(price == _price);\n        require(quantity >= _quantity);\n        require(msg.value == _price*_quantity);\n        quantity = quantity.sub(_quantity);\n\n        numberOfSales = numberOfSales.add(1);\n\n        sales[numberOfSales] = Sale(\n            msg.sender,\n            _price,\n            _quantity,\n            false,\n            false,\n            false,\n            0,\n            '',\n            ''\n            );\n        pendingList[numberOfSales] = true;\n        owner.transfer(msg.value);\n        //\n        store.newSale();\n        emit Sold(msg.sender,numberOfSales);\n        return numberOfSales;\n    }\n\n    function submitSuccess(uint _saleID, uint8 _rating, string _review) onlyOwner(_saleID) onlyPending(_saleID) public returns(bool) {\n        sales[_saleID].success = true;\n        sales[_saleID].dispute = false;\n        sales[_saleID].review = _review;\n        sales[_saleID].rating = _rating;\n        pendingList[_saleID] = false;\n        numberOfSuccess = numberOfSuccess.add(1);\n        numberOfRatings = numberOfRatings.add(1);\n        ratingSum = ratingSum.add(_rating);\n        ratingAverage = ratingSum.div(numberOfRatings);\n        //\n        store.newSuccess(_rating);\n        return true;\n    }\n    function submitDispute(uint _saleID, string _reason) onlyOwner(_saleID) onlyPending(_saleID) public returns(bool) {\n        sales[_saleID].success = false;\n        sales[_saleID].dispute = true;\n        sales[_saleID].reason = _reason;\n        pendingList[_saleID] = false;\n        disputesList[_saleID] = true;\n        numberOfDisputes = numberOfDisputes.add(1);\n        //\n        store.newDispute();\n        return true;\n    }\n    function resolveDispute(uint _saleID, uint8 _rating, string _review) onlyOwner(_saleID) public returns(bool) {\n        require(sales[_saleID].dispute == true);\n        sales[_saleID].resolved = true;\n        sales[_saleID].review = _review;\n        sales[_saleID].rating = _rating;\n        numberOfResolvedDisputes = numberOfResolvedDisputes.add(1);\n        numberOfRatings = numberOfRatings.add(1);\n        ratingSum = ratingSum.add(_rating);\n        ratingAverage = ratingSum.div(numberOfRatings);\n        //\n        store.newResolvedDispute(_rating);\n        return true;\n    }\n\n    // Store owner functions\n    function changeQuantity(uint _quantity) public returns(uint) {\n        require(msg.sender == owner);\n        quantity = _quantity;\n        return quantity;\n    }\n    function approve() public {\n        require(msg.sender == storeAddress);\n        approved = true;\n    }\n\n\n}\n",
  "sourcePath": "/Users/juanbernardotobar/lacanoa/viu_pi/contractbase/contracts/Product.sol",
  "compiler": {
    "name": "solc",
    "version": "0.4.24+commit.e67f0147.Emscripten.clang"
  },
  "schemaVersion": "2.0.1",
  "updatedAt": "2018-07-31T04:30:34.811Z"
}