{
  "contractName": "Store",
  "abi": [
    {
      "constant": true,
      "inputs": [],
      "name": "numberOfSuccess",
      "outputs": [
        {
          "name": "",
          "type": "uint256"
        }
      ],
      "payable": false,
      "stateMutability": "view",
      "type": "function"
    },
    {
      "constant": true,
      "inputs": [],
      "name": "name",
      "outputs": [
        {
          "name": "",
          "type": "string"
        }
      ],
      "payable": false,
      "stateMutability": "view",
      "type": "function"
    },
    {
      "constant": true,
      "inputs": [],
      "name": "numberOfRatings",
      "outputs": [
        {
          "name": "",
          "type": "uint256"
        }
      ],
      "payable": false,
      "stateMutability": "view",
      "type": "function"
    },
    {
      "constant": true,
      "inputs": [],
      "name": "numberOfSales",
      "outputs": [
        {
          "name": "",
          "type": "uint256"
        }
      ],
      "payable": false,
      "stateMutability": "view",
      "type": "function"
    },
    {
      "constant": true,
      "inputs": [
        {
          "name": "",
          "type": "address"
        }
      ],
      "name": "productList",
      "outputs": [
        {
          "name": "",
          "type": "bool"
        }
      ],
      "payable": false,
      "stateMutability": "view",
      "type": "function"
    },
    {
      "constant": true,
      "inputs": [],
      "name": "ratingSum",
      "outputs": [
        {
          "name": "",
          "type": "uint256"
        }
      ],
      "payable": false,
      "stateMutability": "view",
      "type": "function"
    },
    {
      "constant": true,
      "inputs": [
        {
          "name": "",
          "type": "address"
        }
      ],
      "name": "products",
      "outputs": [
        {
          "name": "numberOfSales",
          "type": "uint256"
        },
        {
          "name": "numberOfSuccess",
          "type": "uint256"
        },
        {
          "name": "numberOfRatings",
          "type": "uint256"
        },
        {
          "name": "numberOfDisputes",
          "type": "uint256"
        },
        {
          "name": "numberOfResolvedDisputes",
          "type": "uint256"
        },
        {
          "name": "ratingSum",
          "type": "uint256"
        }
      ],
      "payable": false,
      "stateMutability": "view",
      "type": "function"
    },
    {
      "constant": true,
      "inputs": [],
      "name": "owner",
      "outputs": [
        {
          "name": "",
          "type": "address"
        }
      ],
      "payable": false,
      "stateMutability": "view",
      "type": "function"
    },
    {
      "constant": true,
      "inputs": [],
      "name": "numberOfDisputes",
      "outputs": [
        {
          "name": "",
          "type": "uint256"
        }
      ],
      "payable": false,
      "stateMutability": "view",
      "type": "function"
    },
    {
      "constant": true,
      "inputs": [],
      "name": "numberOfResolvedDisputes",
      "outputs": [
        {
          "name": "",
          "type": "uint256"
        }
      ],
      "payable": false,
      "stateMutability": "view",
      "type": "function"
    },
    {
      "inputs": [
        {
          "name": "_name",
          "type": "string"
        }
      ],
      "payable": false,
      "stateMutability": "nonpayable",
      "type": "constructor"
    },
    {
      "constant": false,
      "inputs": [
        {
          "name": "_productAddress",
          "type": "address"
        }
      ],
      "name": "newProduct",
      "outputs": [],
      "payable": false,
      "stateMutability": "nonpayable",
      "type": "function"
    },
    {
      "constant": false,
      "inputs": [],
      "name": "newSale",
      "outputs": [],
      "payable": false,
      "stateMutability": "nonpayable",
      "type": "function"
    },
    {
      "constant": false,
      "inputs": [
        {
          "name": "_rating",
          "type": "uint256"
        }
      ],
      "name": "newSuccess",
      "outputs": [],
      "payable": false,
      "stateMutability": "nonpayable",
      "type": "function"
    },
    {
      "constant": false,
      "inputs": [],
      "name": "newDispute",
      "outputs": [],
      "payable": false,
      "stateMutability": "nonpayable",
      "type": "function"
    },
    {
      "constant": false,
      "inputs": [
        {
          "name": "_rating",
          "type": "uint256"
        }
      ],
      "name": "newResolvedDispute",
      "outputs": [],
      "payable": false,
      "stateMutability": "nonpayable",
      "type": "function"
    },
    {
      "constant": true,
      "inputs": [
        {
          "name": "_productAddress",
          "type": "address"
        }
      ],
      "name": "productRatingAverage",
      "outputs": [
        {
          "name": "",
          "type": "uint256"
        }
      ],
      "payable": false,
      "stateMutability": "view",
      "type": "function"
    },
    {
      "constant": true,
      "inputs": [],
      "name": "storeRatingAverage",
      "outputs": [
        {
          "name": "",
          "type": "uint256"
        }
      ],
      "payable": false,
      "stateMutability": "view",
      "type": "function"
    }
  ],
  "bytecode": "0x608060405260006002556000600355600060045560006005556000600655600060075534801561002e57600080fd5b50604051610e75380380610e758339810180604052810190808051820192919050505080600190805190602001906100679291906100ae565b50336000806101000a81548173ffffffffffffffffffffffffffffffffffffffff021916908373ffffffffffffffffffffffffffffffffffffffff16021790555050610153565b828054600181600116156101000203166002900490600052602060002090601f016020900481019282601f106100ef57805160ff191683800117855561011d565b8280016001018555821561011d579182015b8281111561011c578251825591602001919060010190610101565b5b50905061012a919061012e565b5090565b61015091905b8082111561014c576000816000905550600101610134565b5090565b90565b610d13806101626000396000f3006080604052600436106100f1576000357c0100000000000000000000000000000000000000000000000000000000900463ffffffff16806301f20c1c146100f657806306fdde03146101215780630770e57d146101b1578063172d9773146101f457806321745c151461021f5780632d486bea1461024a57806339e2f753146102775780633f0795ff146102d257806347f4bd74146102fd5780636ba227d614610314578063793a8e71146103415780637a213ace146103bb5780638da5cb5b146104125780639d142c2614610469578063c26ecd4614610494578063c604a57b146104bf578063d9302581146104d6575b600080fd5b34801561010257600080fd5b5061010b610501565b6040518082815260200191505060405180910390f35b34801561012d57600080fd5b50610136610507565b6040518080602001828103825283818151815260200191508051906020019080838360005b8381101561017657808201518184015260208101905061015b565b50505050905090810190601f1680156101a35780820380516001836020036101000a031916815260200191505b509250505060405180910390f35b3480156101bd57600080fd5b506101f2600480360381019080803573ffffffffffffffffffffffffffffffffffffffff1690602001909291905050506105a5565b005b34801561020057600080fd5b506102096106dd565b6040518082815260200191505060405180910390f35b34801561022b57600080fd5b506102346106e3565b6040518082815260200191505060405180910390f35b34801561025657600080fd5b50610275600480360381019080803590602001909291905050506106e9565b005b34801561028357600080fd5b506102b8600480360381019080803573ffffffffffffffffffffffffffffffffffffffff16906020019092919050505061086f565b604051808215151515815260200191505060405180910390f35b3480156102de57600080fd5b506102e761088f565b6040518082815260200191505060405180910390f35b34801561030957600080fd5b50610312610895565b005b34801561032057600080fd5b5061033f60048036038101908080359060200190929190505050610958565b005b34801561034d57600080fd5b50610382600480360381019080803573ffffffffffffffffffffffffffffffffffffffff169060200190929190505050610ade565b60405180878152602001868152602001858152602001848152602001838152602001828152602001965050505050505060405180910390f35b3480156103c757600080fd5b506103fc600480360381019080803573ffffffffffffffffffffffffffffffffffffffff169060200190929190505050610b1a565b6040518082815260200191505060405180910390f35b34801561041e57600080fd5b50610427610bba565b604051808273ffffffffffffffffffffffffffffffffffffffff1673ffffffffffffffffffffffffffffffffffffffff16815260200191505060405180910390f35b34801561047557600080fd5b5061047e610bdf565b6040518082815260200191505060405180910390f35b3480156104a057600080fd5b506104a9610be5565b6040518082815260200191505060405180910390f35b3480156104cb57600080fd5b506104d4610beb565b005b3480156104e257600080fd5b506104eb610cae565b6040518082815260200191505060405180910390f35b60035481565b60018054600181600116156101000203166002900480601f01602080910402602001604051908101604052809291908181526020018280546001816001161561010002031660029004801561059d5780601f106105725761010080835404028352916020019161059d565b820191906000526020600020905b81548152906001019060200180831161058057829003601f168201915b505050505081565b60008060009054906101000a900473ffffffffffffffffffffffffffffffffffffffff1673ffffffffffffffffffffffffffffffffffffffff163373ffffffffffffffffffffffffffffffffffffffff1614151561060257600080fd5b6001600860008473ffffffffffffffffffffffffffffffffffffffff1673ffffffffffffffffffffffffffffffffffffffff16815260200190815260200160002060006101000a81548160ff0219169083151502179055508190508073ffffffffffffffffffffffffffffffffffffffff166312424e3f6040518163ffffffff167c0100000000000000000000000000000000000000000000000000000000028152600401600060405180830381600087803b1580156106c157600080fd5b505af11580156106d5573d6000803e3d6000fd5b505050505050565b60045481565b60025481565b60011515600860003373ffffffffffffffffffffffffffffffffffffffff1673ffffffffffffffffffffffffffffffffffffffff16815260200190815260200160002060009054906101000a900460ff16151514151561074857600080fd5b6001600960003373ffffffffffffffffffffffffffffffffffffffff1673ffffffffffffffffffffffffffffffffffffffff1681526020019081526020016000206001016000828254019250508190555080600960003373ffffffffffffffffffffffffffffffffffffffff1673ffffffffffffffffffffffffffffffffffffffff168152602001908152602001600020600501600082825401925050819055506001600960003373ffffffffffffffffffffffffffffffffffffffff1673ffffffffffffffffffffffffffffffffffffffff16815260200190815260200160002060020160008282540192505081905550806007600082825401925050819055506001600460008282540192505081905550600160036000828254019250508190555050565b60086020528060005260406000206000915054906101000a900460ff1681565b60075481565b60011515600860003373ffffffffffffffffffffffffffffffffffffffff1673ffffffffffffffffffffffffffffffffffffffff16815260200190815260200160002060009054906101000a900460ff1615151415156108f457600080fd5b6001600960003373ffffffffffffffffffffffffffffffffffffffff1673ffffffffffffffffffffffffffffffffffffffff168152602001908152602001600020600001600082825401925050819055506001600260008282540192505081905550565b60011515600860003373ffffffffffffffffffffffffffffffffffffffff1673ffffffffffffffffffffffffffffffffffffffff16815260200190815260200160002060009054906101000a900460ff1615151415156109b757600080fd5b6001600960003373ffffffffffffffffffffffffffffffffffffffff1673ffffffffffffffffffffffffffffffffffffffff1681526020019081526020016000206004016000828254019250508190555080600960003373ffffffffffffffffffffffffffffffffffffffff1673ffffffffffffffffffffffffffffffffffffffff168152602001908152602001600020600501600082825401925050819055506001600960003373ffffffffffffffffffffffffffffffffffffffff1673ffffffffffffffffffffffffffffffffffffffff16815260200190815260200160002060020160008282540192505081905550806007600082825401925050819055506001600460008282540192505081905550600160066000828254019250508190555050565b60096020528060005260406000206000915090508060000154908060010154908060020154908060030154908060040154908060050154905086565b6000610bb3600960008473ffffffffffffffffffffffffffffffffffffffff1673ffffffffffffffffffffffffffffffffffffffff16815260200190815260200160002060020154600960008573ffffffffffffffffffffffffffffffffffffffff1673ffffffffffffffffffffffffffffffffffffffff16815260200190815260200160002060050154610ccc90919063ffffffff16565b9050919050565b6000809054906101000a900473ffffffffffffffffffffffffffffffffffffffff1681565b60055481565b60065481565b60011515600860003373ffffffffffffffffffffffffffffffffffffffff1673ffffffffffffffffffffffffffffffffffffffff16815260200190815260200160002060009054906101000a900460ff161515141515610c4a57600080fd5b6001600960003373ffffffffffffffffffffffffffffffffffffffff1673ffffffffffffffffffffffffffffffffffffffff168152602001908152602001600020600301600082825401925050819055506001600560008282540192505081905550565b6000610cc7600454600754610ccc90919063ffffffff16565b905090565b6000808284811515610cda57fe5b04905080915050929150505600a165627a7a72305820a9919ff951e9aae6ab3e90d185b3841de681005a918e54c327e0f342a7bdd1790029",
  "source": "pragma solidity ^0.4.20;\nimport \"./Product.sol\";\n/* import \"./SafeMath.sol\"; */\n\ncontract Store {\n    using SafeMath for uint;\n\n    address public owner;\n    string public name;\n    // address public symbol;\n    uint public numberOfSales = 0;\n    uint public numberOfSuccess = 0;\n    uint public numberOfRatings = 0;\n    uint public numberOfDisputes = 0;\n    uint public numberOfResolvedDisputes = 0;\n\n    uint public ratingSum = 0;\n\n    /* Product public ProductContract; */\n\n    mapping(address => bool) public productList;\n\n    struct ProductStruct {\n        uint numberOfSales;\n        uint numberOfSuccess;\n        uint numberOfRatings;\n        uint numberOfDisputes;\n        uint numberOfResolvedDisputes;\n        uint ratingSum;\n        //uint ratingAverage;\n    }\n    mapping(address => ProductStruct) public products;\n\n    modifier onlyOwner() {\n        require(msg.sender == owner);\n        _;\n    }\n\n    modifier onlyProduct() {\n        require(productList[msg.sender] == true);\n        _;\n    }\n\n    constructor(string _name) public {\n        name = _name;\n        owner = msg.sender;\n    }\n    function newProduct(address _productAddress) public onlyOwner {\n        productList[_productAddress] = true;\n        Product pc = Product(_productAddress);\n        pc.approve();\n    }\n    function newSale() public onlyProduct {\n        products[msg.sender].numberOfSales += 1;\n        numberOfSales += 1;\n    }\n    function newSuccess(uint _rating) public onlyProduct {\n        products[msg.sender].numberOfSuccess += 1;\n        products[msg.sender].ratingSum += _rating;\n        products[msg.sender].numberOfRatings += 1;\n        ratingSum += _rating;\n        numberOfRatings += 1;\n        numberOfSuccess += 1;\n    }\n    function newDispute() public onlyProduct {\n        products[msg.sender].numberOfDisputes += 1;\n        numberOfDisputes += 1;\n    }\n    function newResolvedDispute(uint _rating) public onlyProduct {\n        products[msg.sender].numberOfResolvedDisputes += 1;\n        products[msg.sender].ratingSum += _rating;\n        products[msg.sender].numberOfRatings += 1;\n        ratingSum += _rating;\n        numberOfRatings += 1;\n        numberOfResolvedDisputes += 1;\n    }\n\n    function productRatingAverage(address _productAddress) public view returns(uint) {\n        return products[_productAddress].ratingSum.div(products[_productAddress].numberOfRatings);\n    }\n    function storeRatingAverage() public view returns(uint) {\n        return ratingSum.div(numberOfRatings);\n    }\n\n\n\n\n}\n",
  "sourcePath": "/Users/juanbernardotobar/lacanoa/viu_pi/contractbase/contracts/Store.sol",
  "compiler": {
    "name": "solc",
    "version": "0.4.24+commit.e67f0147.Emscripten.clang"
  },
  "schemaVersion": "2.0.1",
  "updatedAt": "2018-07-31T04:30:34.847Z"
}